:1000000048C06CC0B6C06AC069C068C067C066C07E
:1000100065C064C063C064C261C060C05FC05EC0D0
:100020005DC05CC05BC05AC059C058C080C456C0D7
:1000300055C054C0B1C452C051C050C002050F07D2
:100040000001C804320F000202040006000164042B
:100050001919000001061F050001280400160001FF
:10006000040496040000C803FA0A010005043208DB
:1000700000006403E1050C03F182320A0000320340
:10008000C80042090102048040201008040201084F
:10009000620511241FBECFEFD2E0DEBFCDBF11E05D
:1000A000A0E0B1E0E4EFFDE002C005900D92A433C2
:1000B000B107D9F721E0A4E3B1E001C01D92A63E4B
:1000C000B207E1F710E0C9E4D0E003C02197FE01D8
:1000D00081D6C834D107D1F73DD68AC691CF83E007
:1000E00090E07ED68F3F39F08093740062E370E039
:1000F00080E090E066D288E090E072D68F3F11F405
:1001000080910B0180930B0189E090E069D68F3FCD
:1001100011F4809136018093360161E082E0AFD224
:1001200062E083E0ACD262E084E0A9D262E085E0E4
:10013000A6D262E086E0A3D262E087E0A0D262E0CD
:100140008AE09DD28BB780618BBF12BA2F9826E0D0
:1001500040E855E260E070E08FE791E052D464EF50
:1001600071E080E090E02DD26CE071E08FE791E0EB
:100170006BC51F920F920FB60F92112412BA1092F4
:1001800035010F900FBE0F901F9018950F931F937E
:10019000CF93DF938AE021D3C82F87E01ED3880F47
:1001A000991F8C010C0F111D86E017D3880F991F22
:1001B000880F991FEC01C00FD11D85E00ED343E0DD
:1001C000880F991F4A95E1F78C010C0F111D84E0EF
:1001D00004D354E0880F991F5A95E1F7EC01C00F42
:1001E000D11D83E0FAD265E0880F991F6A95E1F787
:1001F0008C0F911D80958F73DF91CF911F910F917F
:10020000089590910B0190689093370192EE90932E
:10021000380191E390933901863008F085E090E051
:100220006CE070E0A4D5FC01E45CFF4FE491E09346
:100230003A01FC01E35CFF4FE491E0933B01FC01D8
:10024000E25CFF4FE491E0933C01FC01E15CFF4F75
:10025000E491E0933D01FC01E05CFF4FE491E09309
:100260003E01FC01EF5BFF4FE491E0933F01FC0195
:10027000EE5BFF4FE491E0934001FC01ED5BFF4F2B
:10028000E491E0934101FC01EC5BFF4FE491E093CA
:100290004201FC01EB5BFF4FE491E0934301FC0161
:1002A000EA5BFF4FE491E0934401FC01E95BFF4FFF
:1002B00084918093450180E1809334010895BF9239
:1002C000CF92DF92EF92FF920F931F93CF93DF9322
:1002D000EC0161E171E08FE791E0B6D46091340107
:1002E000262F30E02150310980E090E0482F50E087
:1002F000421753073CF4FA01E95CFE4F4081942712
:100300008F5FF4CF643081F420913A01392F3F7030
:10031000822F82958F70832792959F709827207FD8
:10032000920F90933A0104C0F901E95CFE4F90836B
:10033000C12C54E0D52E8C2D90E08C179D070CF02D
:100340005FC010E0212F30E08091000190E0880F25
:10035000991F2817390764F48091010190910201D7
:1003600055D1612F617082E0D6D1D6BA1F5FEACF36
:10037000C29A809103019091040148D1D6BA80912C
:1003800003019091040142D1B12C80913401B8163F
:1003900048F507E010E08B2D90E09C01295C3E4F72
:1003A0007901D6BAF701808190E0002E02C09595C0
:1003B00087950A94E2F780FF05C08091090190912A
:1003C0000A0104C080910701909108011FD1D6BA9B
:1003D000809105019091060119D10150110908F78A
:1003E000B394D3CFC630D1051CF488E893E102C0A2
:1003F00084EC99E00BD160E082E08DD1C3949BCF77
:1004000010923401DF91CF911F910F91FF90EF90E7
:10041000DF90CF90BF900895CF93B8DEC82F882388
:1004200039F14AE050E0682F8FE791E07ED4C13087
:1004300019F460E080E018C0C23019F460E081E097
:1004400013C0C43019F460E082E00EC0C83019F463
:1004500060E083E009C0C03119F460E084E004C0CA
:10046000C03219F460E085E0CCDE8AE090E027DF5E
:1004700062E370E080E090E0A4D0C1111CC089EF7D
:1004800082BB85B7877E806185BF81E0809335011F
:1004900085B7806285BF85B7806285BF889585B73F
:1004A0008F7D85BF85B78F7D85BF6CE370E080E071
:1004B00090E0CF9186C0CF910895E9ECF0E0808183
:1004C000887F8083AAECB0E08C918C7F81608C93D4
:1004D0008081877E80838081887F83608083089588
:1004E0001F920F920FB60F9211242F933F938F9369
:1004F0009F93AF93BF938091580190915901A09120
:100500005A01B0915B013091570126E0230F2D373E
:1005100030F029E8230F0396A11DB11D03C00296F8
:10052000A11DB11D2093570180935801909359014B
:10053000A0935A01B0935B0180915C0190915D01A1
:10054000A0915E01B0915F010196A11DB11D809344
:100550005C0190935D01A0935E01B0935F01BF9138
:10056000AF919F918F913F912F910F900FBE0F9060
:100570001F9018953FB7F89480915C0190915D01B0
:10058000A0915E01B0915F0122B708B600FE05C0E0
:100590002F3F19F00196A11DB11D3FBFBA2FA92F02
:1005A000982F8827820F911DA11DB11DBC01CD017F
:1005B00043E0660F771F881F991F4A95D1F708956A
:1005C0000895CF92DF92EF92FF92CF93DF936B016A
:1005D0007C01D0DFEB01C114D104E104F10479F016
:1005E000EFDFC8DF6C1B7D0B683E7340A0F381E03A
:1005F000C81AD108E108F108C851DC4FF2CFDF91E9
:10060000CF91FF90EF90DF90CF90089583309105C8
:1006100028F0880F991F04970197F1F708957894AF
:1006200080B7836080BF83B7877F83BF83B7887FAE
:10063000836083BF89B7816089BF3FDFE9ECF0E069
:100640008081887F808380E18093670084EA809343
:1006500068008CEF80936600AAECB0E08C918C7FF0
:1006600081608C938081877E80838081887F836096
:10067000808385B1887F866085B92F9A0895CF934E
:10068000DF9386FF0AC0982F9F73993010F48AE099
:1006900003C08BE0993009F0891BE82FF0E0EC579C
:1006A000FF4F94918B3049F0833038F0EBE3F0E06A
:1006B000AAE3B0E0C3E6D0E006C0E8E3F0E0A7E3D9
:1006C000B0E0C2E6D0E0892F80952FB761110BC052
:1006D000F8949C9198239C9390819823908398817F
:1006E0008923888314C0623059F4F8943C918323A1
:1006F0008C938081892B8083E881E92BE88307C074
:10070000F894388183238883EC91E92BEC932FBFF5
:10071000DF91CF910895CF93DF9386FF0AC0982F82
:100720009F73993010F48AE003C08BE0993009F090
:10073000891BE82FF0E0EC57FF4FE4918B3079F103
:10074000833038F091E0863029F480B78F7380BF12
:1007500021C092E0853021F480B78F7C80BF18C023
:10076000843019F48FB58F7304C0873021F48FB5AE
:100770008F7C8FBD0DC0823021F48091CA008F73B1
:1007800005C0833029F48091CA008F7C8093CA0011
:10079000913029F4CBE3D0E0A3E6B0E004C0C8E395
:1007A000D0E0A2E6B0E08E2F809561110AC02FB78D
:1007B000F8949881982398839C9189238C932FBFD8
:1007C00009C09FB7F8942881E22BE8832C918223FB
:1007D0008C939FBFDF91CF91089587FF0AC0982F18
:1007E0009F77993010F48AE003C08BE0993009F0CC
:1007F000891BE82FF0E0EC57FF4FE4918B3051F16B
:10080000833038F091E0863029F480B78F7380BF51
:1008100024C092E0853021F480B78F7C80BF18C05F
:10082000843019F48FB58F7304C0873021F48FB5ED
:100830008F7C8FBD0DC0823021F48091CA008F73F0
:1008400005C0833029F48091CA008F7C8093CA0050
:10085000913019F0A6E3B0E002C0A9E3B0E08C91BA
:10086000E82381E090E019F480E090E00895089595
:10087000DC011C96ED91FC911D9780A191A122A114
:1008800033A1821B930B8F7199270895DC011C966D
:10089000ED91FC911D9782A193A120A131A1281770
:1008A000390729F0E80FF91F808190E008958FEF54
:1008B0009FEF0895DC011C96ED91FC911D9722A1FC
:1008C00033A180A191A18217930761F0DF01A20FEC
:1008D000B31F8C912F5F3F4F2F71332733A322A378
:1008E00090E008958FEF9FEF0895DC011C96ED9145
:1008F000FC911D9782A193A191A380A30895FC016F
:10090000A289B38981E090E0058C02C0880F991F0D
:100910000A94E2F72C9130E028233923232BD1F3DA
:100920000688F789E02D608381E090E008951F92AA
:100930000F920FB60F9211242F933F934F936F9303
:100940007F938F939F93EF93FF934091800020912B
:10095000E2013091E301C90101968F7199276091FD
:10096000E4017091E5018617970741F0F901EE5314
:10097000FE4F40839093E3018093E201FF91EF915A
:100980009F918F917F916F914F913F912F910F90F8
:100990000FBE0F901F9018951F920F920FB60F92D7
:1009A00011242F933F934F936F937F938F939F9334
:1009B000EF93FF93409190002091BE013091BF01D1
:1009C000C90101968F7199276091C0017091C10191
:1009D0008617970741F0F901E256FE4F4083909346
:1009E000BF018093BE01FF91EF919F918F917F9105
:1009F0006F914F913F912F910F900FBE0F901F90CD
:100A000018958F929F92AF92BF92FF920F931F9370
:100A1000CF93DF93EC014A015B01F22EEA89FB8957
:100A200001E010E0C8010E8C02C0880F991F0A94E3
:100A3000E2F7808360E874E88EE190E0A50194011C
:100A4000A7D1DA01C9010197A109B109B695A79506
:100A500097958795EE85FF85292F33272083E88991
:100A6000F9898083E88DF98DF082EC89FD892081F8
:100A7000C8010A8C02C0880F991F0A94E2F7822BE2
:100A80008083EC89FD892081C8010B8C02C0880F0E
:100A9000991F0A94E2F7822B8083EC89FD8980817B
:100AA0000C8C02C0000F111F0A94E2F7082B008380
:100AB000DF91CF911F910F91FF90BF90AF909F90CA
:100AC0008F900895CF92DF92EF92FF92EFE7F1E0DF
:100AD0001382128288EEC82E83E0D82EE12CF12CEE
:100AE000C482D582E682F78267E271E07183608317
:100AF00082EC91E09587848782E890E097878687EB
:100B000081E890E0918B808B86E890E0938B828BDC
:100B100085E890E0958B848B84E890E0918F808FBE
:100B200080E890E0978B868B44E0428F33E0338FF0
:100B300027E0248F95E0958F81E0868FE0E6F1E055
:100B400013821282C482D582E682F7827183608327
:100B50006EE971E07587648762E970E07787668780
:100B600061E970E0718B608B66E970E0738B628B7A
:100B700065E970E0758B648B64E970E0718F608F5C
:100B800060E970E0778B668B428F338F248F958F6F
:100B9000868FFF90EF90DF90CF900895CF92DF92F5
:100BA000EF92FF920F931F93CF93DF936C01EB01B2
:100BB0007B01E40EF51E00E010E0CE15DF0561F0CC
:100BC0006991D601ED91FC910190F081E02DC60173
:100BD0000995080F191FF1CFC801DF91CF911F911F
:100BE0000F91FF90EF90DF90CF9008956115710500
:100BF00079F0FB0101900020E9F73197AF01461B26
:100C0000570BDC01ED91FC910280F381E02D0994FA
:100C100080E090E00895DC01ED91FC910190F0817D
:100C2000E02D09940F931F93CF93DF93EC016DE0B8
:100C3000F2DF8C016AE0CE01EEDF800F911FDF91C1
:100C4000CF911F910F9108950F931F93CF93DF932F
:100C5000EC01CCDF8C01CE01E5DF800F911FDF912D
:100C6000CF911F910F9108958F929F92AF92BF9253
:100C7000CF92DF92EF92FF920F931F93CF93DF9368
:100C8000CDB7DEB7A1970FB6F894DEBF0FBECDBFCC
:100C90006C01142FE52FCB01022F19A2223008F48A
:100CA0000AE07E0121E2E20EF11C802E912CA12CA3
:100CB000B12C612F7E2FA50194016AD0802F622F65
:100CC0004DD0181B81E0E81AF1081A3014F4105DB9
:100CD00001C0195CF7011083122FE32FCA01232BE7
:100CE000242B252B31F7B701C60180DFA1960FB663
:100CF000F894DEBF0FBECDBFDF91CF911F910F9152
:100D0000FF90EF90DF90CF90BF90AF909F908F902B
:100D100008952115310541F4DC01ED91FC9101901C
:100D2000F081E02D642F09949FCF0F931F93CF93F1
:100D3000DF93EC019A01462F50E060E070E0E9DFBC
:100D40008C01CE016FDF800F911FDF91CF911F913A
:100D50000F91089564DCC3D95FDBFECF002480FDD2
:100D6000060E660F11F08695D1F7802D08950024A8
:100D7000552704C0080E591F880F991F009729F0A6
:100D800076956795B8F37105B9F7802D952F08957D
:100D9000A1E21A2EAA1BBB1BFD010DC0AA1FBB1F7F
:100DA000EE1FFF1FA217B307E407F50720F0A21BF1
:100DB000B30BE40BF50B661F771F881F991F1A945E
:100DC00069F760957095809590959B01AC01BD0188
:100DD000CF010895EE0FFF1F0590F491E02D0994C7
:100DE000E199FECF9FBB8EBBE09A99278DB3089502
:040DF000F894FFCFA5
:100DF40014C800D0072C012C010D021F524F415280
:100E0400005374617274696E67207472616E736DDD
:100E1400697400000000007F04CE0538045A0446BB
:040E2400047504004D
:00000001FF
